{
  "contractName": "StudentVerification",
  "abi": [
    {
      "anonymous": false,
      "inputs": [
        {
          "indexed": true,
          "internalType": "string",
          "name": "uhi",
          "type": "string"
        },
        {
          "indexed": false,
          "internalType": "string",
          "name": "name",
          "type": "string"
        }
      ],
      "name": "StudentRegistered",
      "type": "event"
    },
    {
      "anonymous": false,
      "inputs": [
        {
          "indexed": true,
          "internalType": "string",
          "name": "uhi",
          "type": "string"
        },
        {
          "indexed": false,
          "internalType": "string",
          "name": "name",
          "type": "string"
        },
        {
          "indexed": false,
          "internalType": "bool",
          "name": "isValid",
          "type": "bool"
        }
      ],
      "name": "StudentVerified",
      "type": "event"
    },
    {
      "inputs": [
        {
          "internalType": "string",
          "name": "_name",
          "type": "string"
        },
        {
          "internalType": "string",
          "name": "_instituteCode",
          "type": "string"
        },
        {
          "internalType": "string",
          "name": "_uhi",
          "type": "string"
        }
      ],
      "name": "registerStudent",
      "outputs": [],
      "stateMutability": "nonpayable",
      "type": "function"
    },
    {
      "inputs": [
        {
          "internalType": "string",
          "name": "_name",
          "type": "string"
        },
        {
          "internalType": "string",
          "name": "_uhi",
          "type": "string"
        }
      ],
      "name": "verifyStudent",
      "outputs": [
        {
          "internalType": "bool",
          "name": "",
          "type": "bool"
        }
      ],
      "stateMutability": "view",
      "type": "function",
      "constant": true
    }
  ],
  "bytecode": "0x608060405234801561001057600080fd5b50610a65806100206000396000f3fe608060405234801561001057600080fd5b50600436106100365760003560e01c806393e47f151461003b578063aa7f6f0314610057575b600080fd5b610055600480360381019061005091906103f8565b610087565b005b610071600480360381019061006c919061049f565b6101ef565b60405161007e9190610532565b60405180910390f35b60008160405161009791906105be565b908152602001604051809103902060030160009054906101000a900460ff16156100f6576040517f08c379a00000000000000000000000000000000000000000000000000000000081526004016100ed90610632565b60405180910390fd5b60405180608001604052808481526020018381526020018281526020016001151581525060008260405161012a91906105be565b9081526020016040518091039020600082015181600001908161014d9190610868565b5060208201518160010190816101639190610868565b5060408201518160020190816101799190610868565b5060608201518160030160006101000a81548160ff021916908315150217905550905050806040516101ab91906105be565b60405180910390207f99de9e27b7501a37ca6980ff5a350f85ee64d5242f63c8db6354390ff1bf3779846040516101e29190610973565b60405180910390a2505050565b6000808260405161020091906105be565b908152602001604051809103902060030160009054906101000a900460ff16801561029657508260405160200161023791906105be565b6040516020818303038152906040528051906020012060008360405161025d91906105be565b908152602001604051809103902060000160405160200161027e9190610a18565b60405160208183030381529060405280519060200120145b905092915050565b6000604051905090565b600080fd5b600080fd5b600080fd5b600080fd5b6000601f19601f8301169050919050565b7f4e487b7100000000000000000000000000000000000000000000000000000000600052604160045260246000fd5b610305826102bc565b810181811067ffffffffffffffff82111715610324576103236102cd565b5b80604052505050565b600061033761029e565b905061034382826102fc565b919050565b600067ffffffffffffffff821115610363576103626102cd565b5b61036c826102bc565b9050602081019050919050565b82818337600083830152505050565b600061039b61039684610348565b61032d565b9050828152602081018484840111156103b7576103b66102b7565b5b6103c2848285610379565b509392505050565b600082601f8301126103df576103de6102b2565b5b81356103ef848260208601610388565b91505092915050565b600080600060608486031215610411576104106102a8565b5b600084013567ffffffffffffffff81111561042f5761042e6102ad565b5b61043b868287016103ca565b935050602084013567ffffffffffffffff81111561045c5761045b6102ad565b5b610468868287016103ca565b925050604084013567ffffffffffffffff811115610489576104886102ad565b5b610495868287016103ca565b9150509250925092565b600080604083850312156104b6576104b56102a8565b5b600083013567ffffffffffffffff8111156104d4576104d36102ad565b5b6104e0858286016103ca565b925050602083013567ffffffffffffffff811115610501576105006102ad565b5b61050d858286016103ca565b9150509250929050565b60008115159050919050565b61052c81610517565b82525050565b60006020820190506105476000830184610523565b92915050565b600081519050919050565b600081905092915050565b60005b83811015610581578082015181840152602081019050610566565b60008484015250505050565b60006105988261054d565b6105a28185610558565b93506105b2818560208601610563565b80840191505092915050565b60006105ca828461058d565b915081905092915050565b600082825260208201905092915050565b7f53747564656e7420616c726561647920726567697374657265642e0000000000600082015250565b600061061c601b836105d5565b9150610627826105e6565b602082019050919050565b6000602082019050818103600083015261064b8161060f565b9050919050565b7f4e487b7100000000000000000000000000000000000000000000000000000000600052602260045260246000fd5b6000600282049050600182168061069957607f821691505b6020821081036106ac576106ab610652565b5b50919050565b60008190508160005260206000209050919050565b60006020601f8301049050919050565b600082821b905092915050565b6000600883026107147fffffffffffffffffffffffffffffffffffffffffffffffffffffffffffffffff826106d7565b61071e86836106d7565b95508019841693508086168417925050509392505050565b6000819050919050565b6000819050919050565b600061076561076061075b84610736565b610740565b610736565b9050919050565b6000819050919050565b61077f8361074a565b61079361078b8261076c565b8484546106e4565b825550505050565b600090565b6107a861079b565b6107b3818484610776565b505050565b5b818110156107d7576107cc6000826107a0565b6001810190506107b9565b5050565b601f82111561081c576107ed816106b2565b6107f6846106c7565b81016020851015610805578190505b610819610811856106c7565b8301826107b8565b50505b505050565b600082821c905092915050565b600061083f60001984600802610821565b1980831691505092915050565b6000610858838361082e565b9150826002028217905092915050565b6108718261054d565b67ffffffffffffffff81111561088a576108896102cd565b5b6108948254610681565b61089f8282856107db565b600060209050601f8311600181146108d257600084156108c0578287015190505b6108ca858261084c565b865550610932565b601f1984166108e0866106b2565b60005b82811015610908578489015182556001820191506020850194506020810190506108e3565b868310156109255784890151610921601f89168261082e565b8355505b6001600288020188555050505b505050505050565b60006109458261054d565b61094f81856105d5565b935061095f818560208601610563565b610968816102bc565b840191505092915050565b6000602082019050818103600083015261098d818461093a565b905092915050565b600081546109a281610681565b6109ac8186610558565b945060018216600081146109c757600181146109dc57610a0f565b60ff1983168652811515820286019350610a0f565b6109e5856106b2565b60005b83811015610a07578154818901526001820191506020810190506109e8565b838801955050505b50505092915050565b6000610a248284610995565b91508190509291505056fea2646970667358221220c3cf73eee193b05ecaeee07ba973de8963626211559321283fbad04a01b2d0f364736f6c63430008130033",
  "immutableReferences": {},
  "source": "// SPDX-License-Identifier: MIT\r\npragma solidity ^0.8.19;\r\n\r\ncontract StudentVerification {\r\n    struct Student {\r\n        string name;\r\n        string instituteCode;\r\n        string uhi;\r\n        bool isRegistered;\r\n    }\r\n\r\n    mapping(string => Student) private students;  // Mapping UHI to Student details\r\n\r\n    event StudentRegistered(string indexed uhi, string name);\r\n    event StudentVerified(string indexed uhi, string name, bool isValid);\r\n\r\n    // Function to register a student\r\n    function registerStudent(string memory _name, string memory _instituteCode, string memory _uhi) public {\r\n        require(!students[_uhi].isRegistered, \"Student already registered.\");  // Only check by UHI\r\n\r\n        students[_uhi] = Student(_name, _instituteCode, _uhi, true);\r\n        emit StudentRegistered(_uhi, _name);\r\n    }\r\n\r\n    // Function to verify if a student is registered (both name and UHI must match)\r\n    function verifyStudent(string memory _name, string memory _uhi) public view returns (bool) {\r\n    return students[_uhi].isRegistered && keccak256(abi.encodePacked(students[_uhi].name)) == keccak256(abi.encodePacked(_name));\r\n}\r\n}\r\n",
  "sourcePath": "C:\\Users\\ADMIN\\OneDrive\\Desktop\\Students\\student_verification\\contracts\\StudentsVerification.sol",
  "compiler": {
    "name": "solc",
    "version": "0.8.19+commit.7dd6d404.Emscripten.clang"
  },
  "schemaVersion": "3.4.16",
  "updatedAt": "2025-03-15T09:41:24.088Z",
  "networkType": "ethereum",
  "devdoc": {
    "kind": "dev",
    "methods": {},
    "version": 1
  },
  "userdoc": {
    "kind": "user",
    "methods": {},
    "version": 1
  }
}